:03000000020E9B52
:0C0E9B00787FE4F6D8FD758120020EE29D
:10101800496E70757420506C6561736500496E7611
:0B102800616C696420496E70757400F3
:100A0A00C101C1004600520000000100094A00006D
:100A1A00000100000000000000094A006400010013
:100A2A000000010000000948007A000100000000EF
:100A3A000009440082000000094A00860000000004
:100A4A0000010000000948009200010001000000B6
:100A5A00094A009A00000000000000000009460050
:100A6A00A40000000000094A00AA000000010001D9
:100A7A00000100094800B400010000000100094A11
:100A8A0000BC000000010000000000094600C6008A
:100A9A0001000100094600CC0001000000094800DD
:100AAA00D200010001000100094A00DA0000000139
:100ABA000001000000094A00E400010001000000F2
:100ACA000100094800EE000000010000000948008A
:100ADA00F600000000000000094400FE00010009C1
:100AEA0048010200000000000100094A0116000046
:100AFA000000000000010009480120000000010078
:100B0A000100094A01280001000000000001000953
:100B1A004A0132000100000001000100094A013CBB
:100B2A00000100010000000000094C006E000000F6
:100B3A000100010001000100094C0146000000000B
:100B4A0000010001000100094C001600000000002D
:100B5A00000001000100094C0046000000000000EE
:100B6A000000000100094C003A00000000000000EB
:100B7A0000000000094C010A00010000000000000A
:100B8A00000000094C0022000100010000000000E2
:100B9A000000094C000A00010001000100000000E9
:100BAA0000094C002E0001000100010001000000B4
:100BBA00094C005800010001000100010001000970
:100F2700E4F5A0C282C280C2817F38FE121033125C
:100F37000FF47F067E00121033120FF47F0C7E0031
:100F4700121033120FF47F017E00121033120FF4C8
:070F57007F807E00021033D1
:040FF4007F047E00F8
:100FF800E4FDFCC3ED9FEC9E5015E4FBFA0BBB002F
:0F100800010ABA01F8BB62F50DBD00010C80E4CE
:0110170022B6
:100CE100900158EEF0A3EFF0A3EBF0A3EAF0A3E933
:100CF100F0900158E0FEA3E0FF7C277D10120C1854
:100D0100EF2430FFA3E0FBA3E0FAA3E0F9EF120B1D
:100D1100E4900158E0FEA3E0FF7C277D10120C183F
:100D21007E037FE8CFCDCFCECCCE120C18EF24308E
:100D3100FFA3E0FBA3E0FAA3E0F9900001EF120B9F
:100D4100F6900158E0FEA3E0FF7C037DE8120C1849
:100D51007E007F64CFCDCFCECCCE120C18EF2430E5
:100D6100FFA3E0FBA3E0FAA3E0F9900002EF120B6E
:100D7100F6900158E0FEA3E0FF7C007D64120C18A0
:100D81007E007F0ACFCDCFCECCCE120C18EF24300F
:100D9100FFA3E0FBA3E0FAA3E0F9900003EF120B3D
:100DA100F6900158E0FEA3E0FF7C007D0A120C18CA
:100DB100ED2430FFA3E0FBA3E0FAA3E0F9900004E7
:040DC100EF020BF63C
:10103300C280C281D2828FA07F0A7E00120FF8C2C3
:02104300822207
:10104500D280C281D2828FA07F0A7E00120FF8C2A1
:021055008222F5
:100F5E00900153EBF0A3EAF0A3E9F0900153E0FB0C
:100F6E00A3E0FAA3E0F9120BCB6017900153A3E4B0
:100F7E0075F001120C6DA9F0FA120BCBFF12104591
:030F8E0080D922E5
:10105700438920758DCC759850D28ED2ACD2AF22F1
:081081008F993001FDC201222C
:100F910090015DEBF0A3EAF0A3E9F090015DE0FBC5
:100FA100A3E0FAA3E0F9120BCB601790015DA3E473
:100FB10075F001120C6DA9F0FA120BCBFF12108122
:030FC10080D922B2
:09107700E4FF3000FDC200AF9956
:01108000224D
:0300230002106761
:10106700309905C299D20132309804C298D2003221
:03000B00020FC41D
:100FC400C0E0C083C082C0D0758C3C758AB09000EC
:100FD40091E024FFF0900090E034FFF0E07002A371
:100FE400E07004B295C28DD0D0D082D083D0E032EC
:10080000E4900152F0D283D295120F27758921D23C
:10081000AFD2A91210577F827E001210337BFF7A6D
:10082000107918120F5E121077900152EFF012102B
:10083000817F017E00121033C2ACE0120CBB09D9DB
:100840003009913109993209A13309A93409B13527
:1008500009B93609C13709C93809D13908AE410883
:10086000B74208C04308C94408D24508DB4608E43B
:100870004708ED4808F64908FF4A09084B09114C9A
:10088000091A4D09234E092C4F093550093E5109CB
:10089000475209505309595409615509695609715C
:1008A0005709795809815909895A000009E47B01DF
:1008B0007A0079520209DF7B017A0079000209DFB0
:1008C0007B017A0079640209DF7B017A00797A0280
:1008D00009DF7B017A0079820209DF7B017A0079E6
:1008E000860209DF7B017A0079920209DF7B017AB7
:1008F00000799A0209DF7B017A0079A40209DF7B83
:10090000017A0079AA0209DF7B017A0079B4020931
:10091000DF7B017A0079BC0209DF7B017A0079C6AE
:100920000209DF7B017A0079CC0209DF7B017A00C2
:1009300079D20209DF7B017A0079DA0209DF7B01D3
:100940007A0079E40209DF7B017A0079EE0209DF9F
:100950007B017A0079F60209DF7B017A0079FE805B
:100960007E7B017A01790280767B017A017916809B
:100970006E7B017A01792080667B017A017928807B
:100980005E7B017A01793280567B017A01793C8065
:100990004E7B017A00796E80467B017A0179468030
:1009A0003E7B017A00791680367B017A0079468099
:1009B0002E7B017A00793A80267B017A01790A80C0
:1009C0001E7B017A00792280167B017A00790A80E9
:1009D0000E7B017A00792E80067B017A007958120D
:1009E0000DC580177F827E001210337BFF7A10794D
:1009F00025120F5E7F6C7E07120FF87F647E001257
:0A0A00000FF87F01121033020813F3
:0B0DC500900153EBF0A3EAF0A3E9F06B
:100DD000E4A3F0A3F0900157E025E0FF900156E076
:100DE00033FE900153E0FBA3E0FAA3E0F98F828E7B
:100DF00083120C8345F07037D295900090F0A37465
:100E000028F0758C3C758AB0D28C30950BB2837FFC
:100E1000057E00120FF880F2900090E4F0A3742891
:100E2000F0C283900090E07002A3E0605C80F490D8
:100E30000157E025E0FF900156E033FE900153E0BA
:100E4000FBA3E0FAA3E0F98F828E83120C83640186
:100E500045F07046C295900090F0A37450F0758CE8
:100E60003C758AB0D28C20950BB2837F027E001233
:100E70000FF880F2900090E4F0A37428F0C2839001
:100E80000090E07002A3E070F6900157E004F0706B
:0A0E900006900156E004F0020DD5B3
:010E9A002235
:100EA700020800E493A3F8E493A34003F68001F259
:100EB70008DFF48029E493A3F85407240CC8C3334C
:100EC700C4540F4420C8834004F456800146F6DF1B
:100ED700E4800B0102040810204080900A0AE47E97
:100EE700019360BCA3FF543F30E509541FFEE49310
:100EF700A360010ECF54C025E060A840B8E493A3D7
:100F0700FAE493A3F8E493A3C8C582C8CAC583CA01
:100F1700F0A3C8C582C8CAC583CADFE9DEE780BEB9
:010BCA00002A
:100BCB00BB010689828A83E0225002E722BBFE0228
:090BDB00E32289828A83E493225B
:100BE400BB010689828A83F0225002F722BBFE01F0
:020BF400F322EA
:100BF600F8BB010DE58229F582E5833AF583E8F035
:100C0600225006E92582C8F622BBFE05E92582C8E0
:020C1600F222C8
:100C1800BC000BBE0029EF8DF084FFADF022E4CCC0
:100C2800F875F008EF2FFFEE33FEEC33FCEE9DEC89
:100C3800984005FCEE9DFE0FD5F0E9E4CEFD22EDCF
:100C4800F8F5F0EE8420D21CFEADF075F008EF2F19
:100C5800FFED33FD4007985006D5F0F222C398FD0A
:050C68000FD5F0EA22A7
:100C6D00A3F8E0C5F025F0F0E5821582700215833A
:060C7D00E0C838F0E82297
:100C8300BB0110E58229F582E5833AF583E0F5F0AF
:100C9300A3E0225009E92582F886F008E622BBFE8C
:100CA3000AE92582F8E2F5F008E222E5832AF583D2
:080CB300E993F5F0A3E9932297
:100CBB00D083D082F8E4937012740193700DA3A3C8
:100CCB0093F8740193F5828883E4737402936860DC
:060CDB00EFA3A3A380DFDC
:00000001FF
